{"abi":[{"type":"constructor","inputs":[{"name":"_name","type":"string","internalType":"string"},{"name":"_description","type":"string","internalType":"string"},{"name":"_startTime","type":"uint256","internalType":"uint256"},{"name":"_endTime","type":"uint256","internalType":"uint256"}],"stateMutability":"nonpayable"},{"type":"function","name":"approveCandidate","inputs":[{"name":"candidateAddress","type":"address","internalType":"address"}],"outputs":[],"stateMutability":"nonpayable"},{"type":"function","name":"approveVoter","inputs":[{"name":"voterAddress","type":"address","internalType":"address"}],"outputs":[],"stateMutability":"nonpayable"},{"type":"function","name":"candidateCount","inputs":[],"outputs":[{"name":"","type":"uint256","internalType":"uint256"}],"stateMutability":"view"},{"type":"function","name":"candidateRequests","inputs":[{"name":"","type":"address","internalType":"address"}],"outputs":[{"name":"","type":"uint256","internalType":"uint256"}],"stateMutability":"view"},{"type":"function","name":"candidates","inputs":[{"name":"","type":"uint256","internalType":"uint256"}],"outputs":[{"name":"id","type":"uint256","internalType":"uint256"},{"name":"name","type":"string","internalType":"string"},{"name":"party","type":"string","internalType":"string"},{"name":"wallet","type":"address","internalType":"address"},{"name":"voteCount","type":"uint256","internalType":"uint256"},{"name":"approved","type":"bool","internalType":"bool"}],"stateMutability":"view"},{"type":"function","name":"election","inputs":[],"outputs":[{"name":"name","type":"string","internalType":"string"},{"name":"description","type":"string","internalType":"string"},{"name":"startTime","type":"uint256","internalType":"uint256"},{"name":"endTime","type":"uint256","internalType":"uint256"},{"name":"active","type":"bool","internalType":"bool"}],"stateMutability":"view"},{"type":"function","name":"endElection","inputs":[],"outputs":[],"stateMutability":"nonpayable"},{"type":"function","name":"getCandidateStatus","inputs":[{"name":"candidateAddress","type":"address","internalType":"address"}],"outputs":[{"name":"registered","type":"bool","internalType":"bool"},{"name":"approved","type":"bool","internalType":"bool"}],"stateMutability":"view"},{"type":"function","name":"getCandidates","inputs":[],"outputs":[{"name":"","type":"tuple[]","internalType":"struct Voting.Candidate[]","components":[{"name":"id","type":"uint256","internalType":"uint256"},{"name":"name","type":"string","internalType":"string"},{"name":"party","type":"string","internalType":"string"},{"name":"wallet","type":"address","internalType":"address"},{"name":"voteCount","type":"uint256","internalType":"uint256"},{"name":"approved","type":"bool","internalType":"bool"}]}],"stateMutability":"view"},{"type":"function","name":"getElectionInfo","inputs":[],"outputs":[{"name":"","type":"tuple","internalType":"struct Voting.Election","components":[{"name":"name","type":"string","internalType":"string"},{"name":"description","type":"string","internalType":"string"},{"name":"startTime","type":"uint256","internalType":"uint256"},{"name":"endTime","type":"uint256","internalType":"uint256"},{"name":"active","type":"bool","internalType":"bool"}]}],"stateMutability":"view"},{"type":"function","name":"getPendingCandidates","inputs":[],"outputs":[{"name":"","type":"tuple[]","internalType":"struct Voting.Candidate[]","components":[{"name":"id","type":"uint256","internalType":"uint256"},{"name":"name","type":"string","internalType":"string"},{"name":"party","type":"string","internalType":"string"},{"name":"wallet","type":"address","internalType":"address"},{"name":"voteCount","type":"uint256","internalType":"uint256"},{"name":"approved","type":"bool","internalType":"bool"}]}],"stateMutability":"view"},{"type":"function","name":"getPendingVoters","inputs":[],"outputs":[{"name":"","type":"tuple[]","internalType":"struct Voting.Voter[]","components":[{"name":"id","type":"uint256","internalType":"uint256"},{"name":"name","type":"string","internalType":"string"},{"name":"wallet","type":"address","internalType":"address"},{"name":"hasVoted","type":"bool","internalType":"bool"},{"name":"approved","type":"bool","internalType":"bool"}]}],"stateMutability":"view"},{"type":"function","name":"getResults","inputs":[],"outputs":[{"name":"winnerName","type":"string","internalType":"string"},{"name":"maxVotes","type":"uint256","internalType":"uint256"},{"name":"allCandidates","type":"tuple[]","internalType":"struct Voting.Candidate[]","components":[{"name":"id","type":"uint256","internalType":"uint256"},{"name":"name","type":"string","internalType":"string"},{"name":"party","type":"string","internalType":"string"},{"name":"wallet","type":"address","internalType":"address"},{"name":"voteCount","type":"uint256","internalType":"uint256"},{"name":"approved","type":"bool","internalType":"bool"}]}],"stateMutability":"view"},{"type":"function","name":"getVoterStatus","inputs":[{"name":"voterAddress","type":"address","internalType":"address"}],"outputs":[{"name":"registered","type":"bool","internalType":"bool"},{"name":"approved","type":"bool","internalType":"bool"},{"name":"hasVoted","type":"bool","internalType":"bool"}],"stateMutability":"view"},{"type":"function","name":"isRegisteredCandidate","inputs":[{"name":"","type":"address","internalType":"address"}],"outputs":[{"name":"","type":"bool","internalType":"bool"}],"stateMutability":"view"},{"type":"function","name":"isRegisteredVoter","inputs":[{"name":"","type":"address","internalType":"address"}],"outputs":[{"name":"","type":"bool","internalType":"bool"}],"stateMutability":"view"},{"type":"function","name":"owner","inputs":[],"outputs":[{"name":"","type":"address","internalType":"address"}],"stateMutability":"view"},{"type":"function","name":"requestCandidateRegistration","inputs":[{"name":"name","type":"string","internalType":"string"},{"name":"party","type":"string","internalType":"string"}],"outputs":[],"stateMutability":"nonpayable"},{"type":"function","name":"requestVoterRegistration","inputs":[{"name":"name","type":"string","internalType":"string"}],"outputs":[],"stateMutability":"nonpayable"},{"type":"function","name":"totalVotes","inputs":[],"outputs":[{"name":"","type":"uint256","internalType":"uint256"}],"stateMutability":"view"},{"type":"function","name":"vote","inputs":[{"name":"candidateId","type":"uint256","internalType":"uint256"}],"outputs":[],"stateMutability":"nonpayable"},{"type":"function","name":"voterCount","inputs":[],"outputs":[{"name":"","type":"uint256","internalType":"uint256"}],"stateMutability":"view"},{"type":"function","name":"voterRequests","inputs":[{"name":"","type":"address","internalType":"address"}],"outputs":[{"name":"","type":"uint256","internalType":"uint256"}],"stateMutability":"view"},{"type":"function","name":"voters","inputs":[{"name":"","type":"address","internalType":"address"}],"outputs":[{"name":"id","type":"uint256","internalType":"uint256"},{"name":"name","type":"string","internalType":"string"},{"name":"wallet","type":"address","internalType":"address"},{"name":"hasVoted","type":"bool","internalType":"bool"},{"name":"approved","type":"bool","internalType":"bool"}],"stateMutability":"view"},{"type":"event","name":"CandidateApproved","inputs":[{"name":"id","type":"uint256","indexed":false,"internalType":"uint256"},{"name":"name","type":"string","indexed":false,"internalType":"string"},{"name":"party","type":"string","indexed":false,"internalType":"string"},{"name":"wallet","type":"address","indexed":false,"internalType":"address"}],"anonymous":false},{"type":"event","name":"CandidateRequested","inputs":[{"name":"user","type":"address","indexed":true,"internalType":"address"},{"name":"name","type":"string","indexed":false,"internalType":"string"},{"name":"party","type":"string","indexed":false,"internalType":"string"}],"anonymous":false},{"type":"event","name":"ElectionEnded","inputs":[{"name":"winnerName","type":"string","indexed":false,"internalType":"string"},{"name":"winnerVotes","type":"uint256","indexed":false,"internalType":"uint256"}],"anonymous":false},{"type":"event","name":"Voted","inputs":[{"name":"voter","type":"address","indexed":true,"internalType":"address"},{"name":"candidateId","type":"uint256","indexed":false,"internalType":"uint256"}],"anonymous":false},{"type":"event","name":"VoterApproved","inputs":[{"name":"id","type":"uint256","indexed":false,"internalType":"uint256"},{"name":"name","type":"string","indexed":false,"internalType":"string"},{"name":"wallet","type":"address","indexed":false,"internalType":"address"}],"anonymous":false},{"type":"event","name":"VoterRequested","inputs":[{"name":"user","type":"address","indexed":true,"internalType":"address"},{"name":"name","type":"string","indexed":false,"internalType":"string"}],"anonymous":false}],"bytecode":{"object":"0x608060405234801561000f575f5ffd5b506040516145b43803806145b483398181016040528101906100319190610309565b808210610073576040517f08c379a000000000000000000000000000000000000000000000000000000000815260040161006a906103ff565b60405180910390fd5b4282116100b5576040517f08c379a00000000000000000000000000000000000000000000000000000000081526004016100ac90610467565b60405180910390fd5b335f5f6101000a81548173ffffffffffffffffffffffffffffffffffffffff021916908373ffffffffffffffffffffffffffffffffffffffff1602179055506040518060a001604052808581526020018481526020018381526020018281526020016001151581525060015f820151815f019081610133919061068c565b506020820151816001019081610149919061068c565b5060408201518160020155606082015181600301556080820151816004015f6101000a81548160ff0219169083151502179055509050505050505061075b565b5f604051905090565b5f5ffd5b5f5ffd5b5f5ffd5b5f5ffd5b5f601f19601f8301169050919050565b7f4e487b71000000000000000000000000000000000000000000000000000000005f52604160045260245ffd5b6101e8826101a2565b810181811067ffffffffffffffff82111715610207576102066101b2565b5b80604052505050565b5f610219610189565b905061022582826101df565b919050565b5f67ffffffffffffffff821115610244576102436101b2565b5b61024d826101a2565b9050602081019050919050565b8281835e5f83830152505050565b5f61027a6102758461022a565b610210565b9050828152602081018484840111156102965761029561019e565b5b6102a184828561025a565b509392505050565b5f82601f8301126102bd576102bc61019a565b5b81516102cd848260208601610268565b91505092915050565b5f819050919050565b6102e8816102d6565b81146102f2575f5ffd5b50565b5f81519050610303816102df565b92915050565b5f5f5f5f6080858703121561032157610320610192565b5b5f85015167ffffffffffffffff81111561033e5761033d610196565b5b61034a878288016102a9565b945050602085015167ffffffffffffffff81111561036b5761036a610196565b5b610377878288016102a9565b9350506040610388878288016102f5565b9250506060610399878288016102f5565b91505092959194509250565b5f82825260208201905092915050565b7f496e76616c69642074696d652072616e676500000000000000000000000000005f82015250565b5f6103e96012836103a5565b91506103f4826103b5565b602082019050919050565b5f6020820190508181035f830152610416816103dd565b9050919050565b7f53746172742074696d65206d75737420626520696e20667574757265000000005f82015250565b5f610451601c836103a5565b915061045c8261041d565b602082019050919050565b5f6020820190508181035f83015261047e81610445565b9050919050565b5f81519050919050565b7f4e487b71000000000000000000000000000000000000000000000000000000005f52602260045260245ffd5b5f60028204905060018216806104d357607f821691505b6020821081036104e6576104e561048f565b5b50919050565b5f819050815f5260205f209050919050565b5f6020601f8301049050919050565b5f82821b905092915050565b5f600883026105487fffffffffffffffffffffffffffffffffffffffffffffffffffffffffffffffff8261050d565b610552868361050d565b95508019841693508086168417925050509392505050565b5f819050919050565b5f61058d610588610583846102d6565b61056a565b6102d6565b9050919050565b5f819050919050565b6105a683610573565b6105ba6105b282610594565b848454610519565b825550505050565b5f5f905090565b6105d16105c2565b6105dc81848461059d565b505050565b5b818110156105ff576105f45f826105c9565b6001810190506105e2565b5050565b601f82111561064457610615816104ec565b61061e846104fe565b8101602085101561062d578190505b610641610639856104fe565b8301826105e1565b50505b505050565b5f82821c905092915050565b5f6106645f1984600802610649565b1980831691505092915050565b5f61067c8383610655565b9150826002028217905092915050565b61069582610485565b67ffffffffffffffff8111156106ae576106ad6101b2565b5b6106b882546104bc565b6106c3828285610603565b5f60209050601f8311600181146106f4575f84156106e2578287015190505b6106ec8582610671565b865550610753565b601f198416610702866104ec565b5f5b8281101561072957848901518255600182019150602085019450602081019050610704565b868310156107465784890151610742601f891682610655565b8355505b6001600288020188555050505b505050505050565b613e4c806107685f395ff3fe608060405234801561000f575f5ffd5b5060043610610156575f3560e01c806378e3ef20116100c1578063c3322d091161007a578063c3322d09146103b3578063c40584b1146103d1578063d08597b914610401578063d6f1694f14610431578063da36cffe14610462578063ee2128f21461049257610156565b806378e3ef20146102d557806386852dca146103075780638da5cb5b146103255780639a70b32714610343578063a3ec138d14610361578063a9a981a31461039557610156565b80633477ee2e116101135780633477ee2e1461020657806342169e481461023b5780634717f97c146102595780634b1d3ede1461027957806359f784681461029b5780635ef16fa9146102a557610156565b80630121b93f1461015a57806302c7538a1461017657806306a49fce1461019257806307be7e91146101b05780630d15fd77146101cc578063119d4ddb146101ea575b5f5ffd5b610174600480360381019061016f9190612a21565b6104ae565b005b610190600480360381019061018b9190612b88565b610898565b005b61019a610bfe565b6040516101a79190612ddf565b60405180910390f35b6101ca60048036038101906101c59190612e29565b610f45565b005b6101d461119f565b6040516101e19190612e63565b60405180910390f35b61020460048036038101906101ff9190612e29565b6111a5565b005b610220600480360381019061021b9190612a21565b6114aa565b60405161023296959493929190612ee2565b60405180910390f35b610243611619565b6040516102509190612e63565b60405180910390f35b61026161161f565b60405161027093929190612f4f565b60405180910390f35b61028161173c565b604051610292959493929190612f92565b60405180910390f35b6102a3611877565b005b6102bf60048036038101906102ba9190612e29565b61196d565b6040516102cc9190612ff1565b60405180910390f35b6102ef60048036038101906102ea9190612e29565b61198a565b6040516102fe9392919061300a565b60405180910390f35b61030f611a76565b60405161031c91906130b9565b60405180910390f35b61032d611bdd565b60405161033a91906130d9565b60405180910390f35b61034b611c01565b6040516103589190612ddf565b60405180910390f35b61037b60048036038101906103769190612e29565b611fd5565b60405161038c9594939291906130f2565b60405180910390f35b61039d6120c6565b6040516103aa9190612e63565b60405180910390f35b6103bb6120cc565b6040516103c89190613278565b60405180910390f35b6103eb60048036038101906103e69190612e29565b6124ee565b6040516103f89190612e63565b60405180910390f35b61041b60048036038101906104169190612e29565b612503565b6040516104289190612e63565b60405180910390f35b61044b60048036038101906104469190612e29565b612518565b604051610459929190613298565b60405180910390f35b61047c60048036038101906104779190612e29565b6125c1565b6040516104899190612ff1565b60405180910390f35b6104ac60048036038101906104a791906132bf565b6125de565b005b60016002015442101580156104c857506001600301544211155b610507576040517f08c379a00000000000000000000000000000000000000000000000000000000081526004016104fe9061337f565b60405180910390fd5b60016004015f9054906101000a900460ff16610558576040517f08c379a000000000000000000000000000000000000000000000000000000000815260040161054f906133e7565b60405180910390fd5b600b5f3373ffffffffffffffffffffffffffffffffffffffff1673ffffffffffffffffffffffffffffffffffffffff1681526020019081526020015f205f9054906101000a900460ff166105e1576040517f08c379a00000000000000000000000000000000000000000000000000000000081526004016105d89061344f565b60405180910390fd5b600a5f3373ffffffffffffffffffffffffffffffffffffffff1673ffffffffffffffffffffffffffffffffffffffff1681526020019081526020015f2060020160159054906101000a900460ff1661066e576040517f08c379a0000000000000000000000000000000000000000000000000000000008152600401610665906134b7565b60405180910390fd5b600a5f3373ffffffffffffffffffffffffffffffffffffffff1673ffffffffffffffffffffffffffffffffffffffff1681526020019081526020015f2060020160149054906101000a900460ff16156106fc576040517f08c379a00000000000000000000000000000000000000000000000000000000081526004016106f39061351f565b60405180910390fd5b5f8111801561070d57506006548111155b61074c576040517f08c379a000000000000000000000000000000000000000000000000000000000815260040161074390613587565b60405180910390fd5b60095f8281526020019081526020015f206005015f9054906101000a900460ff166107ac576040517f08c379a00000000000000000000000000000000000000000000000000000000081526004016107a3906135ef565b60405180910390fd5b6001600a5f3373ffffffffffffffffffffffffffffffffffffffff1673ffffffffffffffffffffffffffffffffffffffff1681526020019081526020015f2060020160146101000a81548160ff021916908315150217905550600160095f8381526020019081526020015f206004015f828254610829919061363a565b9250508190555060085f8154809291906108429061366d565b91905055503373ffffffffffffffffffffffffffffffffffffffff167f4d99b957a2bc29a30ebd96a7be8e68fe50a3c701db28a91436490b7d53870ca48260405161088d9190612e63565b60405180910390a250565b600b5f3373ffffffffffffffffffffffffffffffffffffffff1673ffffffffffffffffffffffffffffffffffffffff1681526020019081526020015f205f9054906101000a900460ff1615610922576040517f08c379a0000000000000000000000000000000000000000000000000000000008152600401610919906136fe565b60405180910390fd5b600c5f3373ffffffffffffffffffffffffffffffffffffffff1673ffffffffffffffffffffffffffffffffffffffff1681526020019081526020015f205f9054906101000a900460ff16156109ac576040517f08c379a00000000000000000000000000000000000000000000000000000000081526004016109a390613766565b60405180910390fd5b5f600e5f3373ffffffffffffffffffffffffffffffffffffffff1673ffffffffffffffffffffffffffffffffffffffff1681526020019081526020015f205414610a2b576040517f08c379a0000000000000000000000000000000000000000000000000000000008152600401610a22906137ce565b60405180910390fd5b60075f815480929190610a3d9061366d565b9190505550600754600e5f3373ffffffffffffffffffffffffffffffffffffffff1673ffffffffffffffffffffffffffffffffffffffff1681526020019081526020015f20819055506040518060a0016040528060075481526020018281526020013373ffffffffffffffffffffffffffffffffffffffff1681526020015f151581526020015f1515815250600a5f3373ffffffffffffffffffffffffffffffffffffffff1673ffffffffffffffffffffffffffffffffffffffff1681526020019081526020015f205f820151815f01556020820151816001019081610b2391906139e9565b506040820151816002015f6101000a81548173ffffffffffffffffffffffffffffffffffffffff021916908373ffffffffffffffffffffffffffffffffffffffff16021790555060608201518160020160146101000a81548160ff02191690831515021790555060808201518160020160156101000a81548160ff0219169083151502179055509050503373ffffffffffffffffffffffffffffffffffffffff167f9ce429b3729c51a5c1c92849e7088bf7955d17c5510bf84ac6ed5513a289d11382604051610bf39190613ab8565b60405180910390a250565b60605f60065467ffffffffffffffff811115610c1d57610c1c612a64565b5b604051908082528060200260200182016040528015610c5657816020015b610c43612920565b815260200190600190039081610c3b5790505b5090505f5f90505f600190505b6006548111610e905760095f8281526020019081526020015f206005015f9054906101000a900460ff1615610e7d5760095f8281526020019081526020015f206040518060c00160405290815f8201548152602001600182018054610cc790613819565b80601f0160208091040260200160405190810160405280929190818152602001828054610cf390613819565b8015610d3e5780601f10610d1557610100808354040283529160200191610d3e565b820191905f5260205f20905b815481529060010190602001808311610d2157829003601f168201915b50505050508152602001600282018054610d5790613819565b80601f0160208091040260200160405190810160405280929190818152602001828054610d8390613819565b8015610dce5780601f10610da557610100808354040283529160200191610dce565b820191905f5260205f20905b815481529060010190602001808311610db157829003601f168201915b50505050508152602001600382015f9054906101000a900473ffffffffffffffffffffffffffffffffffffffff1673ffffffffffffffffffffffffffffffffffffffff1673ffffffffffffffffffffffffffffffffffffffff16815260200160048201548152602001600582015f9054906101000a900460ff161515151581525050838381518110610e6357610e62613ad8565b5b60200260200101819052508180610e799061366d565b9250505b8080610e889061366d565b915050610c63565b505f8167ffffffffffffffff811115610eac57610eab612a64565b5b604051908082528060200260200182016040528015610ee557816020015b610ed2612920565b815260200190600190039081610eca5790505b5090505f5f90505b82811015610f3b57838181518110610f0857610f07613ad8565b5b6020026020010151828281518110610f2357610f22613ad8565b5b60200260200101819052508080600101915050610eed565b5080935050505090565b5f5f9054906101000a900473ffffffffffffffffffffffffffffffffffffffff1673ffffffffffffffffffffffffffffffffffffffff163373ffffffffffffffffffffffffffffffffffffffff1614610fd3576040517f08c379a0000000000000000000000000000000000000000000000000000000008152600401610fca90613b4f565b60405180910390fd5b5f600d5f8373ffffffffffffffffffffffffffffffffffffffff1673ffffffffffffffffffffffffffffffffffffffff1681526020019081526020015f205490505f8111611056576040517f08c379a000000000000000000000000000000000000000000000000000000000815260040161104d90613bb7565b60405180910390fd5b60095f8281526020019081526020015f206005015f9054906101000a900460ff16156110b7576040517f08c379a00000000000000000000000000000000000000000000000000000000081526004016110ae90613c1f565b60405180910390fd5b600160095f8381526020019081526020015f206005015f6101000a81548160ff0219169083151502179055506001600c5f8473ffffffffffffffffffffffffffffffffffffffff1673ffffffffffffffffffffffffffffffffffffffff1681526020019081526020015f205f6101000a81548160ff0219169083151502179055507f2ca28526ca2825de0ff39bb564fe7a42fe236f8a86df7bfa0d1c9114e90091eb8160095f8481526020019081526020015f2060010160095f8581526020019081526020015f20600201856040516111939493929190613cbe565b60405180910390a15050565b60085481565b5f5f9054906101000a900473ffffffffffffffffffffffffffffffffffffffff1673ffffffffffffffffffffffffffffffffffffffff163373ffffffffffffffffffffffffffffffffffffffff1614611233576040517f08c379a000000000000000000000000000000000000000000000000000000000815260040161122a90613b4f565b60405180910390fd5b5f600e5f8373ffffffffffffffffffffffffffffffffffffffff1673ffffffffffffffffffffffffffffffffffffffff1681526020019081526020015f2054116112b2576040517f08c379a00000000000000000000000000000000000000000000000000000000081526004016112a990613bb7565b60405180910390fd5b600a5f8273ffffffffffffffffffffffffffffffffffffffff1673ffffffffffffffffffffffffffffffffffffffff1681526020019081526020015f2060020160159054906101000a900460ff1615611340576040517f08c379a000000000000000000000000000000000000000000000000000000000815260040161133790613c1f565b60405180910390fd5b6001600a5f8373ffffffffffffffffffffffffffffffffffffffff1673ffffffffffffffffffffffffffffffffffffffff1681526020019081526020015f2060020160156101000a81548160ff0219169083151502179055506001600b5f8373ffffffffffffffffffffffffffffffffffffffff1673ffffffffffffffffffffffffffffffffffffffff1681526020019081526020015f205f6101000a81548160ff0219169083151502179055507f18263abf741210021f1b52ef33c4e8b0981f0a6919c7ee358805a3a53d2e2d9b600a5f8373ffffffffffffffffffffffffffffffffffffffff1673ffffffffffffffffffffffffffffffffffffffff1681526020019081526020015f205f0154600a5f8473ffffffffffffffffffffffffffffffffffffffff1673ffffffffffffffffffffffffffffffffffffffff1681526020019081526020015f206001018360405161149f93929190613d0f565b60405180910390a150565b6009602052805f5260405f205f91509050805f0154908060010180546114cf90613819565b80601f01602080910402602001604051908101604052809291908181526020018280546114fb90613819565b80156115465780601f1061151d57610100808354040283529160200191611546565b820191905f5260205f20905b81548152906001019060200180831161152957829003601f168201915b50505050509080600201805461155b90613819565b80601f016020809104026020016040519081016040528092919081815260200182805461158790613819565b80156115d25780601f106115a9576101008083540402835291602001916115d2565b820191905f5260205f20905b8154815290600101906020018083116115b557829003601f168201915b505050505090806003015f9054906101000a900473ffffffffffffffffffffffffffffffffffffffff1690806004015490806005015f9054906101000a900460ff16905086565b60075481565b60605f6060600160030154421180611646575060016004015f9054906101000a900460ff16155b611685576040517f08c379a000000000000000000000000000000000000000000000000000000000815260040161167c90613d95565b60405180910390fd5b5f61168e610bfe565b90505f60405180602001604052805f81525090505f5f90505f5f90505b835181101561172a57818482815181106116c8576116c7613ad8565b5b602002602001015160800151111561171d578381815181106116ed576116ec613ad8565b5b602002602001015160800151915083818151811061170e5761170d613ad8565b5b60200260200101516020015192505b80806001019150506116ab565b50818184955095509550505050909192565b6001805f01805461174c90613819565b80601f016020809104026020016040519081016040528092919081815260200182805461177890613819565b80156117c35780601f1061179a576101008083540402835291602001916117c3565b820191905f5260205f20905b8154815290600101906020018083116117a657829003601f168201915b5050505050908060010180546117d890613819565b80601f016020809104026020016040519081016040528092919081815260200182805461180490613819565b801561184f5780601f106118265761010080835404028352916020019161184f565b820191905f5260205f20905b81548152906001019060200180831161183257829003601f168201915b505050505090806002015490806003015490806004015f9054906101000a900460ff16905085565b5f5f9054906101000a900473ffffffffffffffffffffffffffffffffffffffff1673ffffffffffffffffffffffffffffffffffffffff163373ffffffffffffffffffffffffffffffffffffffff1614611905576040517f08c379a00000000000000000000000000000000000000000000000000000000081526004016118fc90613b4f565b60405180910390fd5b5f60016004015f6101000a81548160ff0219169083151502179055505f5f61192b61161f565b50915091507f4d31db6748edbbd9e5b81d507a6477be9bddc93567dc5e6fac4e6bae81f27fa58282604051611961929190613db3565b60405180910390a15050565b600c602052805f5260405f205f915054906101000a900460ff1681565b5f5f5f5f600e5f8673ffffffffffffffffffffffffffffffffffffffff1673ffffffffffffffffffffffffffffffffffffffff1681526020019081526020015f205411600a5f8673ffffffffffffffffffffffffffffffffffffffff1673ffffffffffffffffffffffffffffffffffffffff1681526020019081526020015f2060020160159054906101000a900460ff16600a5f8773ffffffffffffffffffffffffffffffffffffffff1673ffffffffffffffffffffffffffffffffffffffff1681526020019081526020015f2060020160149054906101000a900460ff169250925092509193909250565b611a7e61296a565b60016040518060a00160405290815f82018054611a9a90613819565b80601f0160208091040260200160405190810160405280929190818152602001828054611ac690613819565b8015611b115780601f10611ae857610100808354040283529160200191611b11565b820191905f5260205f20905b815481529060010190602001808311611af457829003601f168201915b50505050508152602001600182018054611b2a90613819565b80601f0160208091040260200160405190810160405280929190818152602001828054611b5690613819565b8015611ba15780601f10611b7857610100808354040283529160200191611ba1565b820191905f5260205f20905b815481529060010190602001808311611b8457829003601f168201915b505050505081526020016002820154815260200160038201548152602001600482015f9054906101000a900460ff161515151581525050905090565b5f5f9054906101000a900473ffffffffffffffffffffffffffffffffffffffff1681565b60605f5f9054906101000a900473ffffffffffffffffffffffffffffffffffffffff1673ffffffffffffffffffffffffffffffffffffffff163373ffffffffffffffffffffffffffffffffffffffff1614611c91576040517f08c379a0000000000000000000000000000000000000000000000000000000008152600401611c8890613b4f565b60405180910390fd5b5f60065467ffffffffffffffff811115611cae57611cad612a64565b5b604051908082528060200260200182016040528015611ce757816020015b611cd4612920565b815260200190600190039081611ccc5790505b5090505f5f90505f600190505b6006548111611f205760095f8281526020019081526020015f206005015f9054906101000a900460ff16611f0d5760095f8281526020019081526020015f206040518060c00160405290815f8201548152602001600182018054611d5790613819565b80601f0160208091040260200160405190810160405280929190818152602001828054611d8390613819565b8015611dce5780601f10611da557610100808354040283529160200191611dce565b820191905f5260205f20905b815481529060010190602001808311611db157829003601f168201915b50505050508152602001600282018054611de790613819565b80601f0160208091040260200160405190810160405280929190818152602001828054611e1390613819565b8015611e5e5780601f10611e3557610100808354040283529160200191611e5e565b820191905f5260205f20905b815481529060010190602001808311611e4157829003601f168201915b50505050508152602001600382015f9054906101000a900473ffffffffffffffffffffffffffffffffffffffff1673ffffffffffffffffffffffffffffffffffffffff1673ffffffffffffffffffffffffffffffffffffffff16815260200160048201548152602001600582015f9054906101000a900460ff161515151581525050838381518110611ef357611ef2613ad8565b5b60200260200101819052508180611f099061366d565b9250505b8080611f189061366d565b915050611cf4565b505f8167ffffffffffffffff811115611f3c57611f3b612a64565b5b604051908082528060200260200182016040528015611f7557816020015b611f62612920565b815260200190600190039081611f5a5790505b5090505f5f90505b82811015611fcb57838181518110611f9857611f97613ad8565b5b6020026020010151828281518110611fb357611fb2613ad8565b5b60200260200101819052508080600101915050611f7d565b5080935050505090565b600a602052805f5260405f205f91509050805f015490806001018054611ffa90613819565b80601f016020809104026020016040519081016040528092919081815260200182805461202690613819565b80156120715780601f1061204857610100808354040283529160200191612071565b820191905f5260205f20905b81548152906001019060200180831161205457829003601f168201915b505050505090806002015f9054906101000a900473ffffffffffffffffffffffffffffffffffffffff16908060020160149054906101000a900460ff16908060020160159054906101000a900460ff16905085565b60065481565b60605f5f9054906101000a900473ffffffffffffffffffffffffffffffffffffffff1673ffffffffffffffffffffffffffffffffffffffff163373ffffffffffffffffffffffffffffffffffffffff161461215c576040517f08c379a000000000000000000000000000000000000000000000000000000000815260040161215390613b4f565b60405180910390fd5b5f60075467ffffffffffffffff81111561217957612178612a64565b5b6040519080825280602002602001820160405280156121b257816020015b61219f612998565b8152602001906001900390816121975790505b5090505f5f90505f600190505b6007548111612439575f5f90505b600754811015612425575f81905082600a5f8373ffffffffffffffffffffffffffffffffffffffff1673ffffffffffffffffffffffffffffffffffffffff1681526020019081526020015f205f01541480156122745750600a5f8273ffffffffffffffffffffffffffffffffffffffff1673ffffffffffffffffffffffffffffffffffffffff1681526020019081526020015f2060020160159054906101000a900460ff16155b1561241757600a5f8273ffffffffffffffffffffffffffffffffffffffff1673ffffffffffffffffffffffffffffffffffffffff1681526020019081526020015f206040518060a00160405290815f82015481526020016001820180546122da90613819565b80601f016020809104026020016040519081016040528092919081815260200182805461230690613819565b80156123515780601f1061232857610100808354040283529160200191612351565b820191905f5260205f20905b81548152906001019060200180831161233457829003601f168201915b50505050508152602001600282015f9054906101000a900473ffffffffffffffffffffffffffffffffffffffff1673ffffffffffffffffffffffffffffffffffffffff1673ffffffffffffffffffffffffffffffffffffffff1681526020016002820160149054906101000a900460ff161515151581526020016002820160159054906101000a900460ff1615151515815250508585815181106123f8576123f7613ad8565b5b6020026020010181905250838061240e9061366d565b94505050612425565b5080806001019150506121cd565b5080806124319061366d565b9150506121bf565b505f8167ffffffffffffffff81111561245557612454612a64565b5b60405190808252806020026020018201604052801561248e57816020015b61247b612998565b8152602001906001900390816124735790505b5090505f5f90505b828110156124e4578381815181106124b1576124b0613ad8565b5b60200260200101518282815181106124cc576124cb613ad8565b5b60200260200101819052508080600101915050612496565b5080935050505090565b600e602052805f5260405f205f915090505481565b600d602052805f5260405f205f915090505481565b5f5f5f600d5f8573ffffffffffffffffffffffffffffffffffffffff1673ffffffffffffffffffffffffffffffffffffffff1681526020019081526020015f20541160095f600d5f8773ffffffffffffffffffffffffffffffffffffffff1673ffffffffffffffffffffffffffffffffffffffff1681526020019081526020015f205481526020019081526020015f206005015f9054906101000a900460ff1691509150915091565b600b602052805f5260405f205f915054906101000a900460ff1681565b600c5f3373ffffffffffffffffffffffffffffffffffffffff1673ffffffffffffffffffffffffffffffffffffffff1681526020019081526020015f205f9054906101000a900460ff1615612668576040517f08c379a000000000000000000000000000000000000000000000000000000000815260040161265f90613766565b60405180910390fd5b600b5f3373ffffffffffffffffffffffffffffffffffffffff1673ffffffffffffffffffffffffffffffffffffffff1681526020019081526020015f205f9054906101000a900460ff16156126f2576040517f08c379a00000000000000000000000000000000000000000000000000000000081526004016126e9906136fe565b60405180910390fd5b5f600d5f3373ffffffffffffffffffffffffffffffffffffffff1673ffffffffffffffffffffffffffffffffffffffff1681526020019081526020015f205414612771576040517f08c379a0000000000000000000000000000000000000000000000000000000008152600401612768906137ce565b60405180910390fd5b60065f8154809291906127839061366d565b9190505550600654600d5f3373ffffffffffffffffffffffffffffffffffffffff1673ffffffffffffffffffffffffffffffffffffffff1681526020019081526020015f20819055506040518060c0016040528060065481526020018381526020018281526020013373ffffffffffffffffffffffffffffffffffffffff1681526020015f81526020015f151581525060095f60065481526020019081526020015f205f820151815f0155602082015181600101908161284391906139e9565b50604082015181600201908161285991906139e9565b506060820151816003015f6101000a81548173ffffffffffffffffffffffffffffffffffffffff021916908373ffffffffffffffffffffffffffffffffffffffff1602179055506080820151816004015560a0820151816005015f6101000a81548160ff0219169083151502179055509050503373ffffffffffffffffffffffffffffffffffffffff167f2c1806f9c994a02f7cb39705d06fd4dc4a7d8639fe220638bbc8bb4a60fb6b8d8383604051612914929190613de1565b60405180910390a25050565b6040518060c001604052805f815260200160608152602001606081526020015f73ffffffffffffffffffffffffffffffffffffffff1681526020015f81526020015f151581525090565b6040518060a0016040528060608152602001606081526020015f81526020015f81526020015f151581525090565b6040518060a001604052805f8152602001606081526020015f73ffffffffffffffffffffffffffffffffffffffff1681526020015f151581526020015f151581525090565b5f604051905090565b5f5ffd5b5f5ffd5b5f819050919050565b612a00816129ee565b8114612a0a575f5ffd5b50565b5f81359050612a1b816129f7565b92915050565b5f60208284031215612a3657612a356129e6565b5b5f612a4384828501612a0d565b91505092915050565b5f5ffd5b5f5ffd5b5f601f19601f8301169050919050565b7f4e487b71000000000000000000000000000000000000000000000000000000005f52604160045260245ffd5b612a9a82612a54565b810181811067ffffffffffffffff82111715612ab957612ab8612a64565b5b80604052505050565b5f612acb6129dd565b9050612ad78282612a91565b919050565b5f67ffffffffffffffff821115612af657612af5612a64565b5b612aff82612a54565b9050602081019050919050565b828183375f83830152505050565b5f612b2c612b2784612adc565b612ac2565b905082815260208101848484011115612b4857612b47612a50565b5b612b53848285612b0c565b509392505050565b5f82601f830112612b6f57612b6e612a4c565b5b8135612b7f848260208601612b1a565b91505092915050565b5f60208284031215612b9d57612b9c6129e6565b5b5f82013567ffffffffffffffff811115612bba57612bb96129ea565b5b612bc684828501612b5b565b91505092915050565b5f81519050919050565b5f82825260208201905092915050565b5f819050602082019050919050565b612c01816129ee565b82525050565b5f81519050919050565b5f82825260208201905092915050565b8281835e5f83830152505050565b5f612c3982612c07565b612c438185612c11565b9350612c53818560208601612c21565b612c5c81612a54565b840191505092915050565b5f73ffffffffffffffffffffffffffffffffffffffff82169050919050565b5f612c9082612c67565b9050919050565b612ca081612c86565b82525050565b5f8115159050919050565b612cba81612ca6565b82525050565b5f60c083015f830151612cd55f860182612bf8565b5060208301518482036020860152612ced8282612c2f565b91505060408301518482036040860152612d078282612c2f565b9150506060830151612d1c6060860182612c97565b506080830151612d2f6080860182612bf8565b5060a0830151612d4260a0860182612cb1565b508091505092915050565b5f612d588383612cc0565b905092915050565b5f602082019050919050565b5f612d7682612bcf565b612d808185612bd9565b935083602082028501612d9285612be9565b805f5b85811015612dcd5784840389528151612dae8582612d4d565b9450612db983612d60565b925060208a01995050600181019050612d95565b50829750879550505050505092915050565b5f6020820190508181035f830152612df78184612d6c565b905092915050565b612e0881612c86565b8114612e12575f5ffd5b50565b5f81359050612e2381612dff565b92915050565b5f60208284031215612e3e57612e3d6129e6565b5b5f612e4b84828501612e15565b91505092915050565b612e5d816129ee565b82525050565b5f602082019050612e765f830184612e54565b92915050565b5f82825260208201905092915050565b5f612e9682612c07565b612ea08185612e7c565b9350612eb0818560208601612c21565b612eb981612a54565b840191505092915050565b612ecd81612c86565b82525050565b612edc81612ca6565b82525050565b5f60c082019050612ef55f830189612e54565b8181036020830152612f078188612e8c565b90508181036040830152612f1b8187612e8c565b9050612f2a6060830186612ec4565b612f376080830185612e54565b612f4460a0830184612ed3565b979650505050505050565b5f6060820190508181035f830152612f678186612e8c565b9050612f766020830185612e54565b8181036040830152612f888184612d6c565b9050949350505050565b5f60a0820190508181035f830152612faa8188612e8c565b90508181036020830152612fbe8187612e8c565b9050612fcd6040830186612e54565b612fda6060830185612e54565b612fe76080830184612ed3565b9695505050505050565b5f6020820190506130045f830184612ed3565b92915050565b5f60608201905061301d5f830186612ed3565b61302a6020830185612ed3565b6130376040830184612ed3565b949350505050565b5f60a083015f8301518482035f8601526130598282612c2f565b915050602083015184820360208601526130738282612c2f565b91505060408301516130886040860182612bf8565b50606083015161309b6060860182612bf8565b5060808301516130ae6080860182612cb1565b508091505092915050565b5f6020820190508181035f8301526130d1818461303f565b905092915050565b5f6020820190506130ec5f830184612ec4565b92915050565b5f60a0820190506131055f830188612e54565b81810360208301526131178187612e8c565b90506131266040830186612ec4565b6131336060830185612ed3565b6131406080830184612ed3565b9695505050505050565b5f81519050919050565b5f82825260208201905092915050565b5f819050602082019050919050565b5f60a083015f8301516131885f860182612bf8565b50602083015184820360208601526131a08282612c2f565b91505060408301516131b56040860182612c97565b5060608301516131c86060860182612cb1565b5060808301516131db6080860182612cb1565b508091505092915050565b5f6131f18383613173565b905092915050565b5f602082019050919050565b5f61320f8261314a565b6132198185613154565b93508360208202850161322b85613164565b805f5b85811015613266578484038952815161324785826131e6565b9450613252836131f9565b925060208a0199505060018101905061322e565b50829750879550505050505092915050565b5f6020820190508181035f8301526132908184613205565b905092915050565b5f6040820190506132ab5f830185612ed3565b6132b86020830184612ed3565b9392505050565b5f5f604083850312156132d5576132d46129e6565b5b5f83013567ffffffffffffffff8111156132f2576132f16129ea565b5b6132fe85828601612b5b565b925050602083013567ffffffffffffffff81111561331f5761331e6129ea565b5b61332b85828601612b5b565b9150509250929050565b7f566f74696e67206e6f74206163746976650000000000000000000000000000005f82015250565b5f613369601183612e7c565b915061337482613335565b602082019050919050565b5f6020820190508181035f8301526133968161335d565b9050919050565b7f456c656374696f6e206e6f7420616374697665000000000000000000000000005f82015250565b5f6133d1601383612e7c565b91506133dc8261339d565b602082019050919050565b5f6020820190508181035f8301526133fe816133c5565b9050919050565b7f4e6f742061207265676973746572656420766f746572000000000000000000005f82015250565b5f613439601683612e7c565b915061344482613405565b602082019050919050565b5f6020820190508181035f8301526134668161342d565b9050919050565b7f566f746572206e6f7420617070726f76656400000000000000000000000000005f82015250565b5f6134a1601283612e7c565b91506134ac8261346d565b602082019050919050565b5f6020820190508181035f8301526134ce81613495565b9050919050565b7f416c726561647920766f746564000000000000000000000000000000000000005f82015250565b5f613509600d83612e7c565b9150613514826134d5565b602082019050919050565b5f6020820190508181035f830152613536816134fd565b9050919050565b7f496e76616c69642063616e6469646174650000000000000000000000000000005f82015250565b5f613571601183612e7c565b915061357c8261353d565b602082019050919050565b5f6020820190508181035f83015261359e81613565565b9050919050565b7f43616e646964617465206e6f7420617070726f766564000000000000000000005f82015250565b5f6135d9601683612e7c565b91506135e4826135a5565b602082019050919050565b5f6020820190508181035f830152613606816135cd565b9050919050565b7f4e487b71000000000000000000000000000000000000000000000000000000005f52601160045260245ffd5b5f613644826129ee565b915061364f836129ee565b92508282019050808211156136675761366661360d565b5b92915050565b5f613677826129ee565b91507fffffffffffffffffffffffffffffffffffffffffffffffffffffffffffffffff82036136a9576136a861360d565b5b600182019050919050565b7f416c7265616479207265676973746572656420617320766f74657200000000005f82015250565b5f6136e8601b83612e7c565b91506136f3826136b4565b602082019050919050565b5f6020820190508181035f830152613715816136dc565b9050919050565b7f416c726561647920726567697374657265642061732063616e646964617465005f82015250565b5f613750601f83612e7c565b915061375b8261371c565b602082019050919050565b5f6020820190508181035f83015261377d81613744565b9050919050565b7f5265717565737420616c72656164792070656e64696e670000000000000000005f82015250565b5f6137b8601783612e7c565b91506137c382613784565b602082019050919050565b5f6020820190508181035f8301526137e5816137ac565b9050919050565b7f4e487b71000000000000000000000000000000000000000000000000000000005f52602260045260245ffd5b5f600282049050600182168061383057607f821691505b602082108103613843576138426137ec565b5b50919050565b5f819050815f5260205f209050919050565b5f6020601f8301049050919050565b5f82821b905092915050565b5f600883026138a57fffffffffffffffffffffffffffffffffffffffffffffffffffffffffffffffff8261386a565b6138af868361386a565b95508019841693508086168417925050509392505050565b5f819050919050565b5f6138ea6138e56138e0846129ee565b6138c7565b6129ee565b9050919050565b5f819050919050565b613903836138d0565b61391761390f826138f1565b848454613876565b825550505050565b5f5f905090565b61392e61391f565b6139398184846138fa565b505050565b5b8181101561395c576139515f82613926565b60018101905061393f565b5050565b601f8211156139a15761397281613849565b61397b8461385b565b8101602085101561398a578190505b61399e6139968561385b565b83018261393e565b50505b505050565b5f82821c905092915050565b5f6139c15f19846008026139a6565b1980831691505092915050565b5f6139d983836139b2565b9150826002028217905092915050565b6139f282612c07565b67ffffffffffffffff811115613a0b57613a0a612a64565b5b613a158254613819565b613a20828285613960565b5f60209050601f831160018114613a51575f8415613a3f578287015190505b613a4985826139ce565b865550613ab0565b601f198416613a5f86613849565b5f5b82811015613a8657848901518255600182019150602085019450602081019050613a61565b86831015613aa35784890151613a9f601f8916826139b2565b8355505b6001600288020188555050505b505050505050565b5f6020820190508181035f830152613ad08184612e8c565b905092915050565b7f4e487b71000000000000000000000000000000000000000000000000000000005f52603260045260245ffd5b7f4e6f7420617574686f72697a65640000000000000000000000000000000000005f82015250565b5f613b39600e83612e7c565b9150613b4482613b05565b602082019050919050565b5f6020820190508181035f830152613b6681613b2d565b9050919050565b7f4e6f2070656e64696e67207265717565737400000000000000000000000000005f82015250565b5f613ba1601283612e7c565b9150613bac82613b6d565b602082019050919050565b5f6020820190508181035f830152613bce81613b95565b9050919050565b7f416c726561647920617070726f766564000000000000000000000000000000005f82015250565b5f613c09601083612e7c565b9150613c1482613bd5565b602082019050919050565b5f6020820190508181035f830152613c3681613bfd565b9050919050565b5f8154613c4981613819565b613c538186612e7c565b9450600182165f8114613c6d5760018114613c8357613cb5565b60ff198316865281151560200286019350613cb5565b613c8c85613849565b5f5b83811015613cad57815481890152600182019150602081019050613c8e565b808801955050505b50505092915050565b5f608082019050613cd15f830187612e54565b8181036020830152613ce38186613c3d565b90508181036040830152613cf78185613c3d565b9050613d066060830184612ec4565b95945050505050565b5f606082019050613d225f830186612e54565b8181036020830152613d348185613c3d565b9050613d436040830184612ec4565b949350505050565b7f566f74696e67207374696c6c20616374697665000000000000000000000000005f82015250565b5f613d7f601383612e7c565b9150613d8a82613d4b565b602082019050919050565b5f6020820190508181035f830152613dac81613d73565b9050919050565b5f6040820190508181035f830152613dcb8185612e8c565b9050613dda6020830184612e54565b9392505050565b5f6040820190508181035f830152613df98185612e8c565b90508181036020830152613e0d8184612e8c565b9050939250505056fea264697066735822122034d1d4649c683dcc02b38560016e57463fc32a7dbd7449bf5247ef645c694eba64736f6c634300081e0033","linkReferences":{}},"methodIdentifiers":{"approveCandidate(address)":"07be7e91","approveVoter(address)":"119d4ddb","candidateCount()":"a9a981a3","candidateRequests(address)":"d08597b9","candidates(uint256)":"3477ee2e","election()":"4b1d3ede","endElection()":"59f78468","getCandidateStatus(address)":"d6f1694f","getCandidates()":"06a49fce","getElectionInfo()":"86852dca","getPendingCandidates()":"9a70b327","getPendingVoters()":"c3322d09","getResults()":"4717f97c","getVoterStatus(address)":"78e3ef20","isRegisteredCandidate(address)":"5ef16fa9","isRegisteredVoter(address)":"da36cffe","owner()":"8da5cb5b","requestCandidateRegistration(string,string)":"ee2128f2","requestVoterRegistration(string)":"02c7538a","totalVotes()":"0d15fd77","vote(uint256)":"0121b93f","voterCount()":"42169e48","voterRequests(address)":"c40584b1","voters(address)":"a3ec138d"},"id":0}